{
  "address": "0x0d6EbD4ffbbe639Ac4feA5255642dB0EC13E5346",
  "abi": [
    {
      "inputs": [
        {
          "internalType": "uint256",
          "name": "_interestRate",
          "type": "uint256"
        }
      ],
      "stateMutability": "nonpayable",
      "type": "constructor"
    },
    {
      "inputs": [],
      "name": "AmountCanNotBeNull",
      "type": "error"
    },
    {
      "inputs": [],
      "name": "ExactDebtMustBePaid",
      "type": "error"
    },
    {
      "inputs": [],
      "name": "InterestRateOutOfRange",
      "type": "error"
    },
    {
      "inputs": [],
      "name": "LoanMustExist",
      "type": "error"
    },
    {
      "inputs": [],
      "name": "Max2LoansAllowed",
      "type": "error"
    },
    {
      "inputs": [],
      "name": "NotEnoughFundsInContract",
      "type": "error"
    },
    {
      "inputs": [],
      "name": "Unauthorized",
      "type": "error"
    },
    {
      "stateMutability": "payable",
      "type": "fallback"
    },
    {
      "inputs": [
        {
          "internalType": "uint256",
          "name": "_amount",
          "type": "uint256"
        }
      ],
      "name": "borrow",
      "outputs": [],
      "stateMutability": "payable",
      "type": "function"
    },
    {
      "inputs": [
        {
          "internalType": "address",
          "name": "",
          "type": "address"
        },
        {
          "internalType": "uint256",
          "name": "",
          "type": "uint256"
        }
      ],
      "name": "borrowerToLoans",
      "outputs": [
        {
          "internalType": "uint256",
          "name": "id",
          "type": "uint256"
        },
        {
          "internalType": "uint256",
          "name": "debt",
          "type": "uint256"
        },
        {
          "internalType": "address",
          "name": "borrower",
          "type": "address"
        }
      ],
      "stateMutability": "view",
      "type": "function"
    },
    {
      "inputs": [
        {
          "internalType": "address",
          "name": "_borrower",
          "type": "address"
        }
      ],
      "name": "getBorrowerActiveLoansNumber",
      "outputs": [
        {
          "internalType": "uint8",
          "name": "",
          "type": "uint8"
        }
      ],
      "stateMutability": "view",
      "type": "function"
    },
    {
      "inputs": [
        {
          "internalType": "address",
          "name": "_borrower",
          "type": "address"
        },
        {
          "internalType": "uint256",
          "name": "_loanId",
          "type": "uint256"
        }
      ],
      "name": "getBorrowerLoanDueDebt",
      "outputs": [
        {
          "internalType": "uint256",
          "name": "",
          "type": "uint256"
        }
      ],
      "stateMutability": "view",
      "type": "function"
    },
    {
      "inputs": [
        {
          "internalType": "address",
          "name": "_borrower",
          "type": "address"
        },
        {
          "internalType": "uint256",
          "name": "_loanId",
          "type": "uint256"
        },
        {
          "internalType": "address",
          "name": "_lender",
          "type": "address"
        }
      ],
      "name": "getBorrowerLoanDueDebtToLender",
      "outputs": [
        {
          "internalType": "uint256",
          "name": "",
          "type": "uint256"
        }
      ],
      "stateMutability": "view",
      "type": "function"
    },
    {
      "inputs": [],
      "name": "getNumberOfLenders",
      "outputs": [
        {
          "internalType": "uint256",
          "name": "",
          "type": "uint256"
        }
      ],
      "stateMutability": "view",
      "type": "function"
    },
    {
      "inputs": [],
      "name": "i_interestRate",
      "outputs": [
        {
          "internalType": "uint256",
          "name": "",
          "type": "uint256"
        }
      ],
      "stateMutability": "view",
      "type": "function"
    },
    {
      "inputs": [],
      "name": "i_owner",
      "outputs": [
        {
          "internalType": "address payable",
          "name": "",
          "type": "address"
        }
      ],
      "stateMutability": "view",
      "type": "function"
    },
    {
      "inputs": [],
      "name": "lend",
      "outputs": [],
      "stateMutability": "payable",
      "type": "function"
    },
    {
      "inputs": [
        {
          "internalType": "address",
          "name": "",
          "type": "address"
        }
      ],
      "name": "lenderToBalance",
      "outputs": [
        {
          "internalType": "uint256",
          "name": "",
          "type": "uint256"
        }
      ],
      "stateMutability": "view",
      "type": "function"
    },
    {
      "inputs": [
        {
          "internalType": "uint256",
          "name": "",
          "type": "uint256"
        }
      ],
      "name": "lenders",
      "outputs": [
        {
          "internalType": "address",
          "name": "",
          "type": "address"
        }
      ],
      "stateMutability": "view",
      "type": "function"
    },
    {
      "inputs": [
        {
          "internalType": "uint8",
          "name": "_id",
          "type": "uint8"
        }
      ],
      "name": "payloan",
      "outputs": [],
      "stateMutability": "payable",
      "type": "function"
    },
    {
      "inputs": [],
      "name": "totalActiveLoanCounter",
      "outputs": [
        {
          "internalType": "uint256",
          "name": "",
          "type": "uint256"
        }
      ],
      "stateMutability": "view",
      "type": "function"
    },
    {
      "inputs": [],
      "name": "withdraw",
      "outputs": [],
      "stateMutability": "payable",
      "type": "function"
    },
    {
      "stateMutability": "payable",
      "type": "receive"
    }
  ],
  "transactionHash": "0x65176bcbac3a687bc3da2b2ae0c1dfc372b577123d249bc58333d4eca96f10a1",
  "args": [
    "100000000000000000"
  ],
  "numDeployments": 3,
  "solcInputHash": "9fa960984255235851274ac0392259c1",
  "bytecode": "0x60c06040523480156200001157600080fd5b5060405162001c7638038062001c7683398181016040528101906200003791906200010a565b60008114806200004f5750670de0b6b3a76400008110155b1562000087576040517fcc687c7000000000000000000000000000000000000000000000000000000000815260040160405180910390fd5b3373ffffffffffffffffffffffffffffffffffffffff1660a08173ffffffffffffffffffffffffffffffffffffffff16815250508060808181525050506200013c565b600080fd5b6000819050919050565b620000e481620000cf565b8114620000f057600080fd5b50565b6000815190506200010481620000d9565b92915050565b600060208284031215620001235762000122620000ca565b5b60006200013384828501620000f3565b91505092915050565b60805160a051611b0d62000169600039600061130301526000818161132701526113570152611b0d6000f3fe6080604052600436106100e15760003560e01c806395fab5001161007f578063d087213511610059578063d0872135146102c5578063d962403f146102e1578063dba6335f1461030c578063e32b6d8f14610337576100f0565b806395fab5001461026257806397dffc611461029f578063c5ebeaec146102a9576100f0565b80634c47b3d2116100bb5780634c47b3d21461016c5780635d995471146101a9578063604c4ec5146101e6578063929eea2114610225576100f0565b80631276cb91146100fa5780631fd225db146101375780633ccfd60b14610162576100f0565b366100f0576100ee610362565b005b6100f8610362565b005b34801561010657600080fd5b50610121600480360381019061011c9190611572565b6104a1565b60405161012e91906115bb565b60405180910390f35b34801561014357600080fd5b5061014c61058d565b60405161015991906115ef565b60405180910390f35b61016a610593565b005b34801561017857600080fd5b50610193600480360381019061018e9190611572565b610883565b6040516101a091906115ef565b60405180910390f35b3480156101b557600080fd5b506101d060048036038101906101cb9190611636565b61089b565b6040516101dd91906115ef565b60405180910390f35b3480156101f257600080fd5b5061020d60048036038101906102089190611689565b610946565b60405161021c939291906116d8565b60405180910390f35b34801561023157600080fd5b5061024c6004803603810190610247919061170f565b6109ad565b604051610259919061173c565b60405180910390f35b34801561026e57600080fd5b5061028960048036038101906102849190611689565b6109ec565b60405161029691906115ef565b60405180910390f35b6102a7610362565b005b6102c360048036038101906102be919061170f565b610a59565b005b6102df60048036038101906102da9190611783565b610ebe565b005b3480156102ed57600080fd5b506102f66112f4565b60405161030391906115ef565b60405180910390f35b34801561031857600080fd5b50610321611301565b60405161032e91906117d1565b60405180910390f35b34801561034357600080fd5b5061034c611325565b60405161035991906115ef565b60405180910390f35b600034141561039d576040517fc5a7e4b700000000000000000000000000000000000000000000000000000000815260040160405180910390fd5b6000600260003373ffffffffffffffffffffffffffffffffffffffff1673ffffffffffffffffffffffffffffffffffffffff168152602001908152602001600020541415610449576001339080600181540180825580915050600190039060005260206000200160009091909190916101000a81548173ffffffffffffffffffffffffffffffffffffffff021916908373ffffffffffffffffffffffffffffffffffffffff1602179055505b34600260003373ffffffffffffffffffffffffffffffffffffffff1673ffffffffffffffffffffffffffffffffffffffff1681526020019081526020016000206000828254610498919061181b565b92505081905550565b60008060005b600360008573ffffffffffffffffffffffffffffffffffffffff1673ffffffffffffffffffffffffffffffffffffffff168152602001908152602001600020805490508160ff161015610583576000600360008673ffffffffffffffffffffffffffffffffffffffff1673ffffffffffffffffffffffffffffffffffffffff1681526020019081526020016000208260ff168154811061054a57610549611871565b5b9060005260206000209060040201600101541461057057818061056c906118a0565b9250505b808061057b906118a0565b9150506104a7565b5080915050919050565b60005481565b6000600260003373ffffffffffffffffffffffffffffffffffffffff1673ffffffffffffffffffffffffffffffffffffffff16815260200190815260200160002054141561060d576040517f82b4290000000000000000000000000000000000000000000000000000000000815260040160405180910390fd5b6000471415610648576040517f82b4290000000000000000000000000000000000000000000000000000000000815260040160405180910390fd5b60005b6001805490508110156108205760006001828154811061066e5761066d611871565b5b9060005260206000200160009054906101000a900473ffffffffffffffffffffffffffffffffffffffff1673ffffffffffffffffffffffffffffffffffffffff1660026000600185815481106106c7576106c6611871565b5b9060005260206000200160009054906101000a900473ffffffffffffffffffffffffffffffffffffffff1673ffffffffffffffffffffffffffffffffffffffff1673ffffffffffffffffffffffffffffffffffffffff16815260200190815260200160002054604051610739906118fb565b60006040518083038185875af1925050503d8060008114610776576040519150601f19603f3d011682016040523d82523d6000602084013e61077b565b606091505b505090508061078957600080fd5b600060026000600185815481106107a3576107a2611871565b5b9060005260206000200160009054906101000a900473ffffffffffffffffffffffffffffffffffffffff1673ffffffffffffffffffffffffffffffffffffffff1673ffffffffffffffffffffffffffffffffffffffff1681526020019081526020016000208190555050808061081890611910565b91505061064b565b50600067ffffffffffffffff81111561083c5761083b611959565b5b60405190808252806020026020018201604052801561086a5781602001602082028036833780820191505090505b5060019080519060200190610880929190611468565b50565b60026020528060005260406000206000915090505481565b6000600360008573ffffffffffffffffffffffffffffffffffffffff1673ffffffffffffffffffffffffffffffffffffffff16815260200190815260200160002083815481106108ee576108ed611871565b5b906000526020600020906004020160030160008373ffffffffffffffffffffffffffffffffffffffff1673ffffffffffffffffffffffffffffffffffffffff1681526020019081526020016000205490509392505050565b6003602052816000526040600020818154811061096257600080fd5b9060005260206000209060040201600091509150508060000154908060010154908060020160009054906101000a900473ffffffffffffffffffffffffffffffffffffffff16905083565b600181815481106109bd57600080fd5b906000526020600020016000915054906101000a900473ffffffffffffffffffffffffffffffffffffffff1681565b6000600360008473ffffffffffffffffffffffffffffffffffffffff1673ffffffffffffffffffffffffffffffffffffffff1681526020019081526020016000208281548110610a3f57610a3e611871565b5b906000526020600020906004020160010154905092915050565b6000811415610a94576040517fc5a7e4b700000000000000000000000000000000000000000000000000000000815260040160405180910390fd5b80471015610ace576040517f247e65ad00000000000000000000000000000000000000000000000000000000815260040160405180910390fd5b6002610ad9336104a1565b60ff1610610b13576040517f2a6165f500000000000000000000000000000000000000000000000000000000815260040160405180910390fd5b6000610b1e82611349565b9050600080815480929190610b3290611910565b91905055506000600360003373ffffffffffffffffffffffffffffffffffffffff1673ffffffffffffffffffffffffffffffffffffffff1681526020019081526020016000208054905090506000600360003373ffffffffffffffffffffffffffffffffffffffff1673ffffffffffffffffffffffffffffffffffffffff1681526020019081526020016000209050806001816001815401808255809150500390600052602060002090505081818381548110610bf257610bf1611871565b5b90600052602060002090600402016000018190555082818381548110610c1b57610c1a611871565b5b90600052602060002090600402016001018190555033818381548110610c4457610c43611871565b5b906000526020600020906004020160020160006101000a81548173ffffffffffffffffffffffffffffffffffffffff021916908373ffffffffffffffffffffffffffffffffffffffff16021790555060005b600180549050811015610e4057600080610cef60018481548110610cbd57610cbc611871565b5b9060005260206000200160009054906101000a900473ffffffffffffffffffffffffffffffffffffffff1688886113a1565b91509150816002600060018681548110610d0c57610d0b611871565b5b9060005260206000200160009054906101000a900473ffffffffffffffffffffffffffffffffffffffff1673ffffffffffffffffffffffffffffffffffffffff1673ffffffffffffffffffffffffffffffffffffffff1681526020019081526020016000206000828254610d809190611988565b9250508190555080848681548110610d9b57610d9a611871565b5b9060005260206000209060040201600301600060018681548110610dc257610dc1611871565b5b9060005260206000200160009054906101000a900473ffffffffffffffffffffffffffffffffffffffff1673ffffffffffffffffffffffffffffffffffffffff1673ffffffffffffffffffffffffffffffffffffffff1681526020019081526020016000208190555050508080610e3890611910565b915050610c96565b5060003373ffffffffffffffffffffffffffffffffffffffff1685604051610e67906118fb565b60006040518083038185875af1925050503d8060008114610ea4576040519150601f19603f3d011682016040523d82523d6000602084013e610ea9565b606091505b5050905080610eb757600080fd5b5050505050565b600181610ecb91906119bc565b60ff16600360003373ffffffffffffffffffffffffffffffffffffffff1673ffffffffffffffffffffffffffffffffffffffff168152602001908152602001600020805490501015610f49576040517f4c172e5200000000000000000000000000000000000000000000000000000000815260040160405180910390fd5b3373ffffffffffffffffffffffffffffffffffffffff16600360003373ffffffffffffffffffffffffffffffffffffffff1673ffffffffffffffffffffffffffffffffffffffff1681526020019081526020016000208260ff1681548110610fb457610fb3611871565b5b906000526020600020906004020160020160009054906101000a900473ffffffffffffffffffffffffffffffffffffffff1673ffffffffffffffffffffffffffffffffffffffff1614611033576040517f82b4290000000000000000000000000000000000000000000000000000000000815260040160405180910390fd5b6000600360003373ffffffffffffffffffffffffffffffffffffffff1673ffffffffffffffffffffffffffffffffffffffff1681526020019081526020016000208260ff168154811061108957611088611871565b5b90600052602060002090600402019050806001015434146110d6576040517f082faa3100000000000000000000000000000000000000000000000000000000815260040160405180910390fd5b60005b60018054905081101561123c5760008260030160006001848154811061110257611101611871565b5b9060005260206000200160009054906101000a900473ffffffffffffffffffffffffffffffffffffffff1673ffffffffffffffffffffffffffffffffffffffff1673ffffffffffffffffffffffffffffffffffffffff168152602001908152602001600020549050600081146112285760006001838154811061118857611187611871565b5b9060005260206000200160009054906101000a900473ffffffffffffffffffffffffffffffffffffffff1673ffffffffffffffffffffffffffffffffffffffff16826040516111d6906118fb565b60006040518083038185875af1925050503d8060008114611213576040519150601f19603f3d011682016040523d82523d6000602084013e611218565b606091505b505090508061122657600080fd5b505b50808061123490611910565b9150506110d9565b5060008081548092919061124f906119f3565b9190505550600360003373ffffffffffffffffffffffffffffffffffffffff1673ffffffffffffffffffffffffffffffffffffffff1681526020019081526020016000208260ff16815481106112a8576112a7611871565b5b906000526020600020906004020160008082016000905560018201600090556002820160006101000a81549073ffffffffffffffffffffffffffffffffffffffff021916905550505050565b6000600180549050905090565b7f000000000000000000000000000000000000000000000000000000000000000081565b7f000000000000000000000000000000000000000000000000000000000000000081565b600080670de0b6b3a76400007f0000000000000000000000000000000000000000000000000000000000000000846113819190611a1d565b61138b9190611aa6565b90508083611399919061181b565b915050919050565b600080600047600260008873ffffffffffffffffffffffffffffffffffffffff1673ffffffffffffffffffffffffffffffffffffffff16815260200190815260200160002054866113f29190611a1d565b6113fc9190611aa6565b9050600047600260008973ffffffffffffffffffffffffffffffffffffffff1673ffffffffffffffffffffffffffffffffffffffff168152602001908152602001600020548661144c9190611a1d565b6114569190611aa6565b90508181935093505050935093915050565b8280548282559060005260206000209081019282156114e1579160200282015b828111156114e05782518260006101000a81548173ffffffffffffffffffffffffffffffffffffffff021916908373ffffffffffffffffffffffffffffffffffffffff16021790555091602001919060010190611488565b5b5090506114ee91906114f2565b5090565b5b8082111561150b5760008160009055506001016114f3565b5090565b600080fd5b600073ffffffffffffffffffffffffffffffffffffffff82169050919050565b600061153f82611514565b9050919050565b61154f81611534565b811461155a57600080fd5b50565b60008135905061156c81611546565b92915050565b6000602082840312156115885761158761150f565b5b60006115968482850161155d565b91505092915050565b600060ff82169050919050565b6115b58161159f565b82525050565b60006020820190506115d060008301846115ac565b92915050565b6000819050919050565b6115e9816115d6565b82525050565b600060208201905061160460008301846115e0565b92915050565b611613816115d6565b811461161e57600080fd5b50565b6000813590506116308161160a565b92915050565b60008060006060848603121561164f5761164e61150f565b5b600061165d8682870161155d565b935050602061166e86828701611621565b925050604061167f8682870161155d565b9150509250925092565b600080604083850312156116a05761169f61150f565b5b60006116ae8582860161155d565b92505060206116bf85828601611621565b9150509250929050565b6116d281611534565b82525050565b60006060820190506116ed60008301866115e0565b6116fa60208301856115e0565b61170760408301846116c9565b949350505050565b6000602082840312156117255761172461150f565b5b600061173384828501611621565b91505092915050565b600060208201905061175160008301846116c9565b92915050565b6117608161159f565b811461176b57600080fd5b50565b60008135905061177d81611757565b92915050565b6000602082840312156117995761179861150f565b5b60006117a78482850161176e565b91505092915050565b60006117bb82611514565b9050919050565b6117cb816117b0565b82525050565b60006020820190506117e660008301846117c2565b92915050565b7f4e487b7100000000000000000000000000000000000000000000000000000000600052601160045260246000fd5b6000611826826115d6565b9150611831836115d6565b9250827fffffffffffffffffffffffffffffffffffffffffffffffffffffffffffffffff03821115611866576118656117ec565b5b828201905092915050565b7f4e487b7100000000000000000000000000000000000000000000000000000000600052603260045260246000fd5b60006118ab8261159f565b915060ff8214156118bf576118be6117ec565b5b600182019050919050565b600081905092915050565b50565b60006118e56000836118ca565b91506118f0826118d5565b600082019050919050565b6000611906826118d8565b9150819050919050565b600061191b826115d6565b91507fffffffffffffffffffffffffffffffffffffffffffffffffffffffffffffffff82141561194e5761194d6117ec565b5b600182019050919050565b7f4e487b7100000000000000000000000000000000000000000000000000000000600052604160045260246000fd5b6000611993826115d6565b915061199e836115d6565b9250828210156119b1576119b06117ec565b5b828203905092915050565b60006119c78261159f565b91506119d28361159f565b92508260ff038211156119e8576119e76117ec565b5b828201905092915050565b60006119fe826115d6565b91506000821415611a1257611a116117ec565b5b600182039050919050565b6000611a28826115d6565b9150611a33836115d6565b9250817fffffffffffffffffffffffffffffffffffffffffffffffffffffffffffffffff0483118215151615611a6c57611a6b6117ec565b5b828202905092915050565b7f4e487b7100000000000000000000000000000000000000000000000000000000600052601260045260246000fd5b6000611ab1826115d6565b9150611abc836115d6565b925082611acc57611acb611a77565b5b82820490509291505056fea26469706673582212202ae809aaa16b6622d9a4dcf1101a431948d3cb91e29137be053b24c8d73c7d1c64736f6c63430008090033",
  "devdoc": {
    "author": "SiegfriedBz",
    "kind": "dev",
    "methods": {},
    "title": "LendingBorrowing : contract for lending&borrowing ETH",
    "version": 1
  },
  "userdoc": {
    "kind": "user",
    "methods": {
      "borrow(uint256)": {
        "notice": "borrow ETH from the contract creates a new loan calculates the total debt for this loan calculates the debt for each lender for this loan"
      },
      "getBorrowerActiveLoansNumber(address)": {
        "notice": "Getters returns the number of active loans for a given borrower"
      },
      "getBorrowerLoanDueDebt(address,uint256)": {
        "notice": "Getters for front end returns the total due debt with interest for a given borrower - loan"
      },
      "getBorrowerLoanDueDebtToLender(address,uint256,address)": {
        "notice": "Getters for front end returns the lender's due debt with interest for a given borrower - loan - lender"
      },
      "getNumberOfLenders()": {
        "notice": "Getters for front end returns the total number of lenders"
      },
      "lend()": {
        "notice": "lend ETH to the contract"
      },
      "payloan(uint8)": {
        "notice": "repay a loan : send ETH due debt to each lender"
      },
      "withdraw()": {
        "notice": "allows a lender to withdraw all ETH from the contract sends each ETH lender's balance to each lender"
      }
    },
    "notice": "This contract allows lenders to receive interests on loans, as a function of each lender balance/contract balance at the time a loan is createdThis contract allows borrowers to create a max of 2 active loans at a given time",
    "version": 1
  },
  "storageLayout": {
    "storage": [
      {
        "astId": 20,
        "contract": "contracts/LendingBorrowing.sol:LendingBorrowing",
        "label": "totalActiveLoanCounter",
        "offset": 0,
        "slot": "0",
        "type": "t_uint256"
      },
      {
        "astId": 25,
        "contract": "contracts/LendingBorrowing.sol:LendingBorrowing",
        "label": "lenders",
        "offset": 0,
        "slot": "1",
        "type": "t_array(t_address)dyn_storage"
      },
      {
        "astId": 29,
        "contract": "contracts/LendingBorrowing.sol:LendingBorrowing",
        "label": "lenderToBalance",
        "offset": 0,
        "slot": "2",
        "type": "t_mapping(t_address,t_uint256)"
      },
      {
        "astId": 35,
        "contract": "contracts/LendingBorrowing.sol:LendingBorrowing",
        "label": "borrowerToLoans",
        "offset": 0,
        "slot": "3",
        "type": "t_mapping(t_address,t_array(t_struct(Loan)46_storage)dyn_storage)"
      }
    ],
    "types": {
      "t_address": {
        "encoding": "inplace",
        "label": "address",
        "numberOfBytes": "20"
      },
      "t_array(t_address)dyn_storage": {
        "base": "t_address",
        "encoding": "dynamic_array",
        "label": "address[]",
        "numberOfBytes": "32"
      },
      "t_array(t_struct(Loan)46_storage)dyn_storage": {
        "base": "t_struct(Loan)46_storage",
        "encoding": "dynamic_array",
        "label": "struct LendingBorrowing.Loan[]",
        "numberOfBytes": "32"
      },
      "t_mapping(t_address,t_array(t_struct(Loan)46_storage)dyn_storage)": {
        "encoding": "mapping",
        "key": "t_address",
        "label": "mapping(address => struct LendingBorrowing.Loan[])",
        "numberOfBytes": "32",
        "value": "t_array(t_struct(Loan)46_storage)dyn_storage"
      },
      "t_mapping(t_address,t_uint256)": {
        "encoding": "mapping",
        "key": "t_address",
        "label": "mapping(address => uint256)",
        "numberOfBytes": "32",
        "value": "t_uint256"
      },
      "t_struct(Loan)46_storage": {
        "encoding": "inplace",
        "label": "struct LendingBorrowing.Loan",
        "members": [
          {
            "astId": 37,
            "contract": "contracts/LendingBorrowing.sol:LendingBorrowing",
            "label": "id",
            "offset": 0,
            "slot": "0",
            "type": "t_uint256"
          },
          {
            "astId": 39,
            "contract": "contracts/LendingBorrowing.sol:LendingBorrowing",
            "label": "debt",
            "offset": 0,
            "slot": "1",
            "type": "t_uint256"
          },
          {
            "astId": 41,
            "contract": "contracts/LendingBorrowing.sol:LendingBorrowing",
            "label": "borrower",
            "offset": 0,
            "slot": "2",
            "type": "t_address"
          },
          {
            "astId": 45,
            "contract": "contracts/LendingBorrowing.sol:LendingBorrowing",
            "label": "lenderToDebt",
            "offset": 0,
            "slot": "3",
            "type": "t_mapping(t_address,t_uint256)"
          }
        ],
        "numberOfBytes": "128"
      },
      "t_uint256": {
        "encoding": "inplace",
        "label": "uint256",
        "numberOfBytes": "32"
      }
    }
  }
}